:1003D10050617373776F7264733A00200045525213
:0803E1000020202000474F001E
:0C041300040F00000000040802000203B7
:100003001203FF7BFF7A0379D17D017F0112035A2B
:10001300E4F50C1202F28F0E1201E6BF0B137BFF05
:100023007A0379DCAD0C7F0212035A150C150C8090
:1000330026AF0E1201E6EF75F00A84740F250CF853
:10004300A6F0E50C04FD740F250CF8E6FB7A0075A9
:1000530021017F0212039B050CC3E50C6480948489
:1000630040B11202F28F0E1201E6EF640B6053AF40
:100073000E1201E6BF0CEBE4F50CC3E50C648094AF
:100083008450DF740F250CF8E6540FFF7408250C19
:10009300F8E66F600F7BFF7A0379DE7D0D7F011237
:1000A300035A80BE7BFF7A0379E27D0D7F01120341
:1000B3005A7BFF7A0379E67D0D7F0112035A050C03
:0300C30080B822E0
:06042300C2A58F80D2A7E4
:080429007F027EEFDEFEDFFC26
:0104310022A8
:0A043200C2A6120423C2A702042987
:10037D00CFCDCFCECCCE1201057C007D0A1201056A
:04038D00ED2430FF2C
:0A039100D2A6120423C2A702042919
:1003E900AE07BE0104ED148006BE0209ED243F44A8
:0603F90080FF1204322215
:1003FF007F381204327F0C1204327F061204327FD0
:04040F0001020432B0
:0A043C00AC031203E9AF04020391C0
:06035A008B1D8A1E891FA5
:100360001203E9E4FDAB1DAA1EA91F8D827583004F
:0C0370001200C6FF60061203910D80E928
:01037C00225E
:0C0327007F0AEA24FFFDE434FFFC7E00A6
:080333008E228F238C248D25FE
:10033B007F017E00E4FBEBC39525E5246480F87414
:0E034B008098500AAC22AD231200F30B80E81C
:010359002281
:04039B008A1F8B200A
:10039F001203E9AA21EAD39400400D120327AC1FE0
:0803AF00AD2012037D1A80ED60
:0103B7002223
:100247001203E9C3EA64809480400B7F2B12039169
:100257008A2B8B2C800E7F2D120391C3E49BF52CE8
:10026700E49AF52BAA2AEAD39400400D120327AC8F
:090277002BAD2C12037D1A80ED61
:01028000225B
:040281008A2F8B3005
:100285001203E9AA31EAD3940040297F1012032909
:10029500AC2FAD30CFCDCFCECCCE120105EF540F64
:1002A500FEC3940AEE5004243080022437FF120363
:0402B500911A80D149
:0102B9002222
:0402BA008A348B35C2
:1002BE001203E9AA36EAD394004028EA24FFFDE4AB
:1002CE0034FFFC7F027E00120333AC34AD35CFCD4C
:1002DE00CFCECCCE120105EF54012430FF12039184
:0302EE001A80D2A1
:0102F10022EA
:03041F00011401C4
:1003B800EF1FAC0670011E4C600E751B02751CEF1A
:0903C800D51CFDD51BFA80E822CA
:1002F200E4F519F51A7590F0E59064F060F27F0567
:100302007E001203B8E59064F060E585901975905F
:100312000FE590640F60D985901AE590B40FFBE564
:0503220019251AFF225D
:1001E600E4F513EFF4F517C454F0F515C4540FF500
:1001F60015E517C4540FF51675180DC3E518648078
:100206009480401AE51655148518F0A42513F513A5
:10021600E516C313F51674FC2518F51880DD751858
:1002260003E51555148518F0A42513F513E515C334
:1002360013F5151518C3E5186480948050E3AF13C1
:010246002295
:0300000002015AA0
:0C015A00787FE4F6D8FD7581360201A123
:1000C600BB010CE58229F582E5833AF583E02250EF
:1000D60006E92582F8E622BBFE06E92582F8E22239
:0D00E600E58229F582E5833AF583E4932253
:1000F300EF8DF0A4A8F0CF8CF0A428CE8DF0A42E21
:02010300FE22DA
:10010500BC000BBE0029EF8DF084FFADF022E4CCDE
:10011500F875F008EF2FFFEE33FEEC33FCEE9DECA7
:10012500984005FCEE9DFE0FD5F0E9E4CEFD22EDED
:10013500F8F5F0EE8420D21CFEADF075F008EF2F37
:10014500FFED33FD4007985006D5F0F222C398FD28
:050155000FD5F0EA22C5
:10016600020003E493A3F8E493A34003F68001F2AC
:1001760008DFF48029E493A3F85407240CC8C3339A
:10018600C4540F4420C8834004F456800146F6DF69
:10019600E4800B0102040810204080900413E47EE2
:1001A600019360BCA3FF543F30E509541FFEE4935E
:1001B600A360010ECF54C025E060A840B8E493A325
:1001C600FAE493A3F8E493A3C8C582C8CAC583CA50
:1001D600F0A3C8C582C8CAC583CADFE9DEE780BE08
:0104220000D9
:00000001FF
