:06036200C2A58F80D2A7A6
:080368007F027EEFDEFEDFFCE8
:01037000226A
:0A038000C2A6120362C2A7020368BE
:1002E400CFCDCFCECCCE1200427C007D0A1200428C
:0402F400ED2430FFC6
:0A02F800D2A6120362C2A702036837
:10033800AE07BE0104ED148006BE0209ED243F4459
:0603480080FF1203802279
:10034E007F381203807F0C1203807F061203807F9A
:04035E000102038015
:0A038A00AC03120338AF040202F8BE
:0602C1008B128A13891460
:1002C700120338E4FDAB12AA13A9148D82758300BB
:0C02D700120003FF60061202F80D80E91F
:0102E30022F8
:0C0264007F0AEA24FFFDE434FFFC7E006A
:080270008E178F188C198D1AEE
:100278007F017E00E4FBEBC3951AE5196480F874EE
:0E0288008098500AAC17AD181200300B80E8B9
:010296002245
:040302008A148B15B9
:10030600120338AA16EAD39400400D120264AC1404
:08031600AD151202E41A80ED9E
:01031E0022BC
:10018400120338C3EA64809480400B7F2B1202F878
:100194008A208B21800E7F2D1202F8C3E49BF52167
:1001A400E49AF520AA1FEAD39400400D120264AC2D
:0901B40020AD211202E41A80EDD5
:0101BD00221F
:0401BE008A248B25DF
:1001C200120338AA26EAD3940040297F101202664D
:1001D200AC24AD25CFCDCFCECCCE120042EF540F02
:1001E200FEC3940AEE5004243080022437FF120228
:0401F200F81A80D1A6
:0101F60022E6
:0401F7008A298B2A9C
:1001FB00120338AA2BEAD394004028EA24FFFDE42B
:10020B0034FFFC7F027E00120270AC29AD2ACFCDE9
:10021B00CFCECCCE120042EF54012430FF1202F8A5
:03022B001A80D264
:01022E0022AD
:0F037100616374697661746564206B65793A0025
:1002970012034E7BFF7A0379717D017F011202C140
:1002A70012022F8F2D1201238F2CEFFB7A00751668
:0A02B700027D017F0212030280E6BF
:030394000109015B
:10031F00EF1FAC0670011E4C600E7510027511EFC9
:09032F00D511FDD510FA80E82279
:10022F00E4F50EF50F7590F0E59064F060F27F0540
:10023F007E0012031FE59064F060E585900E7590C7
:10024F000FE590640F60D985900FE590B40FFBE533
:05025F000E250FFF2237
:10012300E4F508EFF4F50CC454F0F50AC4540FF5E4
:100133000AE50CC4540FF50B750D0DC3E50D648072
:100143009480401AE50B5509850DF0A42508F508A0
:10015300E50BC313F50B74FC250DF50D80DD750D53
:1001630003E50A5509850DF0A42508F508E50AC33A
:1001730013F50A150DC3E50D6480948050E3AF08B1
:010183002259
:0300000002009764
:0C009700787FE4F6D8FD75812D0200DEB4
:10000300BB010CE58229F582E5833AF583E02250B2
:1000130006E92582F8E622BBFE06E92582F8E222FC
:0D002300E58229F582E5833AF583E4932216
:10003000EF8DF0A4A8F0CF8CF0A428CE8DF0A42EE4
:02004000FE229E
:10004200BC000BBE0029EF8DF084FFADF022E4CCA2
:10005200F875F008EF2FFFEE33FEEC33FCEE9DEC6B
:10006200984005FCEE9DFE0FD5F0E9E4CEFD22EDB1
:10007200F8F5F0EE8420D21CFEADF075F008EF2FFB
:10008200FFED33FD4007985006D5F0F222C398FDEC
:050092000FD5F0EA2289
:1000A300020297E493A3F8E493A34003F68001F2DA
:1000B30008DFF48029E493A3F85407240CC8C3335E
:1000C300C4540F4420C8834004F456800146F6DF2D
:1000D300E4800B0102040810204080900394E47E26
:1000E300019360BCA3FF543F30E509541FFEE49322
:1000F300A360010ECF54C025E060A840B8E493A3E9
:10010300FAE493A3F8E493A3C8C582C8CAC583CA13
:10011300F0A3C8C582C8CAC583CADFE9DEE780BECB
:010397000065
:00000001FF
